:10000000A6C00000BFC00000BDC00000BBC0000013
:10001000B9C00000B7C00000B5C00000B3C0000008
:10002000B1C00000AFC00000ADC000004CC5000072
:10003000A9C00000A7C00000A5C00000A3C0000028
:10004000A1C000009FC000009DC000009BC0000038
:1000500099C0000097C0000095C0000093C0000048
:1000600091C000008FC000008DC000008BC0000058
:1000700089C00000240350004F004B004B00450096
:100080004E00200043004F004E00540052004F002D
:100090004C004C004500520000001C0348004F007B
:1000A00052004900200043004F002E002C004C005D
:1000B000540044002E000000040309040902290032
:1000C00001010080FA090400000203000000092178
:1000D0001101000122560007050203400005070533
:1000E000810340000512010002000000400D0F9244
:1000F0000000010102000105010905A1011500250B
:100100000135004501750195100509190129108176
:100110000205012507463B0175049501651409395F
:10012000814265009501810126FF0046FF000930EC
:100130000931093209357508950481020600FF0965
:1001400020950181020A212695089102C000112400
:100150001FBECFEFD2E0DEBFCDBF11E0A0E0B1E027
:10016000E0E7FFE002C005900D92A23DB107D9F78C
:1001700021E0A2EDB1E001C01D92A83FB207E1F776
:100180003ED2F4C63DCF84B7877F84BF0FB6F894C4
:10019000A895809160008861809360001092600053
:1001A0000FBE90E080E80FB6F894809361009093C2
:1001B00061000FBE79C40895089542E360EC82E0C7
:1001C000B3D342E361EC81E0AFC30895E6E0F1E030
:1001D00020E030E080818C3149F02F5F3F4F339633
:1001E00021343105B9F780E090E00895C901089500
:1001F000CF93DF93DC0188E0FD01282F11922A952F
:10020000E9F790E816969C93169712968C9312979E
:100210008091040113968C93139780910201149698
:100220008C9314978091000115968C93159780916B
:10023000E0019091E101181619066CF488E0E3EEF4
:10024000F1E001900D928A95E1F78091E0019091A3
:10025000E101019785C1ED012091E2012230D1F049
:1002600078F4211173C1B2DF9093DB018093DA013E
:1002700082E08093E2011092DF011092DE0166C1FC
:10028000233009F471C1243009F060C183E0809308
:10029000E2015CC18091DE019091DF0163E070E0DA
:1002A00032D68A5F9E4FDC018C918D3009F47BC081
:1002B00058F5863009F4A8C098F4823009F460C07B
:1002C00048F4882309F45AC0813009F0A0C08FEFA8
:1002D0008C839DC0843009F494C008F454C093C04A
:1002E000893009F44FC040F4873009F48FC088305A
:1002F00009F08DC01C8244C08B3009F447C008F05F
:1003000048C08FEF8C833CC0843109F46AC0D8F4B4
:10031000803109F44BC068F48E3009F43FC08F304F
:1003200009F075C08FEF90E0909305018093040170
:100330006EC0823109F445C008F046C01092010138
:100340001092000164C0873109F445C050F4853132
:1003500009F44BC0863109F05AC0888199818460C4
:100360003DC08A3109F445C08B3109F446C089315A
:1003700009F04DC088819981806230C01C8247C0DD
:100380001B8245C01C828FEF8B8341C08FEF8C8313
:10039000FBCF109203011092020139C010920501A7
:1003A0001092040134C08FEF90E006C080E890E026
:1003B00090930501809304019093030180930201BF
:1003C00026C08FEF90E002C080E890E0909301019A
:1003D000809300011CC08881998182609983888301
:1003E00016C0888199818860F9CF88819981816060
:1003F000F5CF888199819260F1CF88819981906150
:10040000EDCF1A8204C084E08A8301C02A83E09180
:10041000DC01F091DD013196F093DD01E093DC0128
:100420002091DE013091DF01C90163E070E06BD5FE
:100430008A5F9E4FDC0111968D919C9112978E17C9
:100440009F0708F054C02F5F3F4F3093DF01209388
:10045000DE011092DD011092DC012C33310509F030
:1004600046C08091D2019091D30101969093D3011F
:100470008093D2014F97B9F18091D6019091D70125
:10048000A091D801B091D901BC01CD016F5F7F4F20
:100490008F4F9F4F6093D6017093D7018093D801FF
:1004A0009093D901623CB7E27B078105910559F42D
:1004B00081E090E09093D5018093D4011092DF0108
:1004C0001092DE0114C020E43DE040E050E02CD565
:1004D000672B682B692B59F484E090E09093DF013F
:1004E0008093DE0104C01092D3011092D20180915A
:1004F000D4019091D501892B51F08091DE0190912A
:10050000DF01029721F41092DF011092DE01809149
:10051000DE019091DF01039731F480E190E0909348
:10052000DF018093DE018091DE019091DF01823452
:10053000910564F08091DA019091DB019093DF01E5
:100540008093DE011092DD011092DC0188E0FE0153
:10055000A3EEB1E001900D928A95E1F782E090E080
:100560009093E1018093E001DF91CF910895CF93C3
:10057000DF93CDB7DEB728970FB6F894DEBF0FBE76
:10058000CDBF8091EF01843089F582E08093E9004E
:100590008091E80082FF12C08091E80085FF09C0C9
:1005A00040E050E067E070E0CE010196B8D08111E4
:1005B000F7CF8091E8008B778093E80081E080930B
:1005C000E9008091E80080FF11C0CE01019610DEA5
:1005D00040E050E068E070E0CE01019656D0811115
:1005E000F7CF8091E8008E778093E80028960FB6C9
:1005F000F894DEBF0FBECDBFDF91CF910895C3DD6C
:100600007894B5DF66D4FDCF292F33272330310509
:10061000E1F058F42130310599F02230310569F5C7
:1006200089E290E02CEB30E02CC02132310501F161
:100630002232310511F586E590E027EF30E021C048
:1006400082E190E025EE30E01CC0992781309105D1
:1006500049F028F0029789F4E4E7F0E005C0E8EB00
:10066000F0E002C0EAE9F0E0849190E09F0109C067
:1006700089E090E02EEC30E004C080E090E020E0E3
:1006800030E0FA01318320830895CF92DF92EF9218
:10069000FF920F931F93CF93DF93EC018B017A01AD
:1006A00097D1811133C0E114F10439F0F701808151
:1006B0009181081B190BC80FD91FC12CD12C011512
:1006C000110519F18091E80085FD16C08091E800C0
:1006D0008E778093E800FDD3E114F10449F0F7012F
:1006E00080819181C80ED91ED182C08285E00EC062
:1006F0006FD1882321F30AC089918093F1000150C2
:100700001109FFEFCF1ADF0ADACF80E0DF91CF9136
:100710001F910F91FF90EF90DF90CF900895CF92AF
:10072000DF92EF92FF920F931F93CF93DF93EC0131
:100730008B017A014DD1811133C0E114F10439F0FC
:10074000F70180819181081B190BC80FD91FC12C9B
:10075000D12C0115110519F18091E80085FD16C015
:100760008091E8008B778093E800B3D3E114F10423
:1007700049F0F70180819181C80ED91ED182C082D3
:1007800085E00EC025D1882321F30AC08091F100B5
:10079000899301501109FFEFCF1ADF0ADACF80E009
:1007A000DF91CF911F910F91FF90EF90DF90CF904D
:1007B00008952091F6013091F7012617370748F088
:1007C0006115710539F42091E8002E772093E80037
:1007D00001C0B901FC0120E06115710569F180914A
:1007E000EF018823E1F18530E1F18091E80083FD9C
:1007F0003AC08091E80082FD2CC08091E80080FF23
:10080000EBCF8091F20090E06115710551F08034DA
:10081000910538F421912093F100615071090196FE
:10082000F3CF21E08034910509F020E08091E800C9
:100830008E778093E800D0CF2111D1CF0AC080916C
:10084000EF01882361F0853061F08091E80083FD3D
:100850000AC08091E80082FFF2CF80E0089582E034
:10086000089583E0089581E008952091F601309184
:10087000F7012617370748F06115710539F4209103
:10088000E8002E772093E80001C0B901FC0120E0C8
:100890006115710581F18091EF01882309F43EC053
:1008A000853009F43DC08091E80083FD3BC0809114
:1008B000E80082FD2DC08091E80080FFE9CF8091A3
:1008C000F20090E06115710559F08034910540F413
:1008D00024912093F1003196615071090196F2CF75
:1008E00021E08034910509F020E08091E8008E77C6
:1008F0008093E800CDCF2111CECF0AC08091EF01C7
:10090000882361F0853061F08091E80083FD0AC0A2
:100910008091E80082FFF2CF80E0089582E00895A0
:1009200083E0089581E00895982F953068F59093BD
:10093000E900981739F07091EC002091ED0050918A
:10094000F00003C0242F762F50E021FD02C09F5FEE
:10095000ECCF3091EB003E7F3093EB003091ED0017
:100960003D7F3093ED003091EB0031603093EB0030
:100970007093EC002093ED005093F0002091EE0076
:1009800027FDE5CF80E008958F708093E90081E036
:1009900008958091F00187FF11C08091E80082FDE9
:1009A00005C08091EF018111F8CF11C08091E8005E
:1009B0008B770BC08091EF01882349F08091E8008C
:1009C00080FFF8CF8091E8008E778093E80008954B
:1009D0002091E4003091E50095E64091EC00842FF1
:1009E000817040FF23C08091E80080FD1DC0809190
:1009F000EF01882399F0853099F08091EB0085FD17
:100A000011C04091E4005091E5002417350729F307
:100A1000915011F09A01E1CF84E0089582E00895A9
:100A200083E0089581E0089580E008954091E80012
:100A300042FFDDCF089541D043D08091D8008F7719
:100A40008093D8008091D80080688093D8008091EE
:100A5000D8008F7D8093D80084E089BD86E089BD71
:100A600009B400FEFDCF1092EF011092EB0110923D
:100A7000ED011092EC0142E360E080E055DF8091EF
:100A8000E1008E7F8093E1008091E200816080939D
:100A9000E2008091E20088608093E2008091E000B3
:100AA0008E7F8093E0000895E3E6F0E080818E7F02
:100AB000808381E08093EE01BECF1092E200089522
:100AC0001092E10008951F920F920FB60F92112419
:100AD0002F933F934F935F936F937F938F939F9346
:100AE000AF93BF93EF93FF938091E10082FF0AC021
:100AF0008091E20082FF06C08091E1008B7F8093AD
:100B0000E100E6D18091E10080FF17C08091E20012
:100B100080FF13C08091E2008E7F8093E20080917D
:100B2000E20080618093E2008091D800806280932F
:100B3000D80019BC1092EF013FDB8091E10084FFE7
:100B40002FC08091E20084FF2BC084E089BD86E045
:100B500089BD09B400FEFDCF8091D8008F7D8093C0
:100B6000D8008091E1008F7E8093E1008091E200C7
:100B70008F7E8093E2008091E20081608093E200AA
:100B80008091EB01882311F084E007C08091E3009D
:100B900087FD02C081E001C083E08093EF010BDBA1
:100BA0008091E10083FF22C08091E20083FF1EC09C
:100BB0008091E100877F8093E10082E08093EF01E4
:100BC0001092EB018091E1008E7F8093E100809193
:100BD000E2008E7F8093E2008091E200806180934A
:100BE000E20042E360E080E09FDE72D1FF91EF918E
:100BF000BF91AF919F918F917F916F915F914F9135
:100C00003F912F910F900FBE0F901F9018951F933B
:100C1000CF93DF93CDB7DEB7AA970FB6F894DEBFB8
:100C20000FBECDBFE0EFF1E08091F100819321E0B4
:100C3000E83FF207C9F7C9DA8091E80083FF30C1C5
:100C40008091F0019091F101953009F483C030F466
:100C50009130A9F168F0933091F122C1983009F4F4
:100C6000EFC0993009F4FBC0963009F019C194C067
:100C7000803821F0823809F013C108C08091EC015E
:100C80009091ED01992389F082600FC08091F40169
:100C90008F70853008F004C18093E9008091EB00EB
:100CA00085FB882780F91092E9009091E800977FF2
:100CB0009093E8008093F1001092F100CCC0282FAF
:100CC0002D7F09F0EDC0882319F0823061F0E8C073
:100CD0008091F201813009F0E3C0933009F080E0A7
:100CE0008093ED012EC08091F20181112AC0809184
:100CF000F4018F702FEF280F243008F0D1C08093BB
:100D0000E9002091EB0020FF1CC0933021F480917A
:100D1000EB00806214C09091EB0090619093EB0027
:100D200021E030E0A90102C0440F551F8A95E2F787
:100D30004093EA001092EA008091EB008860809373
:100D4000EB001092E9008091E800877F8093E80033
:100D500020DEA6C08111A4C01091F2011F778091FE
:100D6000E3008078812B8093E3008091E800877F07
:100D70008093E8000EDE8091E80080FFFCCF809138
:100D8000E30080688093E300111102C082E001C09B
:100D900083E08093EF0184C08058823008F080C0E7
:100DA0008091F2019091F3018C3D53E0950771F52C
:100DB00083E08A838AE289834FB7F894DE01139631
:100DC00020E03EE051E2E32FF0E050935700E49141
:100DD00020FF03C0E295EF703F5FEF708E2F90E031
:100DE000EA3010F0C79601C0C0968D939D932F5F97
:100DF000243149F74FBF8091E800877F8093E80056
:100E00006AE270E0CE010196D4DC14C06091F40176
:100E10007091F501AE014F5F5F4FF6DBBC01892B8E
:100E200009F43EC09091E800977F9093E800898193
:100E30009A811BDD8091E8008B778093E80030C0B9
:100E4000803871F58091E800877F8093E800809179
:100E5000EB018093F1008091E8008E7777CF8111CC
:100E60001FC08091F2019091F30199270297C4F479
:100E70008091E800877F8093E8008091F201809361
:100E8000EB0187DD8091EB01811106C08091E300C9
:100E900087FD02C081E001C084E08093EF018DD91D
:100EA0008091E80083FF0AC08091E800877F8093EB
:100EB000E8008091EB0080628093EB00AA960FB669
:100EC000F894DEBF0FBECDBFDF91CF911F91089583
:100ED0000895CF938091EF01882399F0C091E900A4
:100EE000CF709091EC00892F817090FD80E8C82B25
:100EF0001092E9008091E80083FD89DECF70C093F5
:100F0000E900CF9108950024552704C0080E591F09
:100F1000880F991F009729F076956795B8F37105AA
:100F2000B9F7802D952F0895A1E21A2EAA1BBB1B9D
:100F3000FD010DC0AA1FBB1FEE1FFF1FA217B307A5
:100F4000E407F50720F0A21BB30BE40BF50B661FBB
:100F5000771F881F991F1A9469F76095709580957F
:100F600090959B01AC01BD01CF010895F894FFCF8E
:100F70008000800080001705001DFA001705001D85
:100F800032001D05001B02001D1E001B02001D1E5D
:100F9000001405001D1E001905001D0F0016050098
:100FA0001D1E001605001D82001B05001D0F0001FF
:100FB00002001D01000302001D01000302001D01CB
:100FC000000302001D01000302001D0100160200C3
:100FD0001D05000150001602001D05000102001D44
:100FE00001000102001D01000102001D01000102BB
:100FF000001D01001602001D0A000102001D010073
:101000000102001D01001602001D05000302001D63
:1010100001000302001D01001C0000040100030187
:10102000000701000301001601001D040016010065
:101030001D0400020100060100020100400DC2274C
:021040000000AE
:00000001FF
